:100000000C9434000C9451000C9451000C94510049
:100010000C9451000C9451000C9451000C9451001C
:100020000C9451000C9451000C9451000C9451000C
:100030000C9451000C9451000C9451000C945100FC
:100040000C9451000C9451000C9451000C945100EC
:100050000C9451000C9451000C9451000C945100DC
:100060000C9451000C94510011241FBECFEFD8E026
:10007000DEBFCDBF11E0A0E0B1E0E6E7FCE002C0EA
:1000800005900D92A83DB107D9F721E0A8EDB1E0A8
:1000900001C01D92AC3DB207E1F70E948F010C94A4
:1000A00039060C940000CF93DF9300D000D01F924C
:1000B000CDB7DEB749835A836B837C838D832981D7
:1000C0003A8140E050E060E472E48FE090E00E940A
:1000D000ED01215031093093C5002093C40088E917
:1000E0008093C1008B81863079F018F4853031F02F
:1000F00023C0873091F08830C9F01EC0E2ECF0E0F8
:100100008081897F80831DC0E2ECF0E080818B7F5D
:10011000808380818260808314C0E2ECF0E0808183
:100120008B7F80838081866080830BC0E2ECF0E06F
:1001300080818660808305C0E2ECF0E0808186608B
:1001400080838D81813019F0823039F00CC0E2EC6F
:10015000F0E08081877F80830BC0E2ECF0E080815B
:100160008860808305C0E2ECF0E08081877F808337
:100170008C81813081F018F0823039F015C0E2ECCA
:10018000F0E080818F7C808314C0E2ECF0E080811D
:10019000806380830EC0E2ECF0E080818062808327
:1001A00080818F7E808305C0E2ECF0E08081877FD4
:1001B000808380E00F900F900F900F900F90DF9151
:1001C000CF910895E0ECF0E0908195FFFDCF809312
:1001D000C6000895CF93DF93EC018881882331F026
:1001E00021960E94E20089918111FBCFDF91CF918E
:1001F0000895E0ECF0E080818823ECF78091C60060
:10020000089583E090E00E942E0220E2FC0120830A
:100210001282118208951F93CF93DF93EC01162F62
:1002200001C0EC0189819A810097D9F783E090E0C1
:100230000E942E029A838983FC011083E981FA814E
:1002400012821182DF91CF911F9108950F931F9316
:10025000CF93DF938C010E94F9008A3061F0C0E0F7
:10026000D0E0682FC8010E940B010E94F90021967E
:100270008A30B9F702C0C0E0D0E08C2FDF91CF9177
:100280001F910F9108951F93CF93DF93EC01162FC9
:1002900083E090E00E942E02FC01108328813981C6
:1002A0003283218399838883DF91CF911F910895B1
:1002B000CF93DF9300D0CDB7DEB79A8389830097C1
:1002C00061F0E981FA81218132813A8329830E9498
:1002D000C60289819A810097A1F760E2CE0101965A
:1002E0000E9443010F900F90DF91CF9108950F93DB
:1002F0001F93CF93DF938C01009749F0EC01888125
:100300000E94E2000980DA81C02D2097C1F7C80160
:100310000E945801DF91CF911F910F910895CF93C3
:10032000DF9300D000D000D0CDB7DEB785E0E6E0A7
:10033000F1E0DE01119601900D928A95E1F7498175
:100340005A816B817C818D810E9453000E94010142
:100350006C010F2EF4EBEF2EF1E0FF2EF02D8E014D
:100360000A5F1F4F8BE091E00E94EA000E94F900B3
:10037000B82E8BE591E00E94EA008B2D0E94E200EE
:100380008EEA91E00E94EA008AE691E00E94EA008B
:10039000C6010E9426011E821F928F93FF92EF9248
:1003A0001F930F930E944F0387EB91E00E94EA0096
:1003B000C6010E9477018DEC91E00E94EA00C8011D
:1003C0000E94EA008EEA91E00E94EA000F900F90EE
:1003D0000F900F900F900F90C5CF052E97FB1EF436
:1003E00000940E94040257FD07D00E940C0207FCF3
:1003F00003D04EF40C94040250954095309521950D
:100400003F4F4F4F5F4F0895909580957095619540
:100410007F4F8F4F9F4F0895A1E21A2EAA1BBB1B3F
:10042000FD010DC0AA1FBB1FEE1FFF1FA217B307C0
:10043000E407F50720F0A21BB30BE40BF50B661FD6
:10044000771F881F991F1A9469F76095709580959A
:1004500090959B01AC01BD01CF0108950F931F93AF
:10046000CF93DF938230910510F482E090E0E09129
:10047000DA01F091DB0120E030E0A0E0B0E030975D
:1004800019F1408151810281138148175907C8F041
:100490008417950769F4109731F012960C93129710
:1004A00013961C9327C00093DA011093DB0122C03E
:1004B0002115310519F04217530718F49A01BD01AF
:1004C000EF01DF01F801DBCF21153105F9F0281B21
:1004D000390B2430310580F48A819B8161157105C7
:1004E00021F0FB019383828304C09093DB0180930E
:1004F000DA01FE01329644C0FE01E20FF31F819340
:10050000919322503109398328833AC02091D80130
:100510003091D901232B41F4209102013091030144
:100520003093D9012093D80120910001309101012D
:100530002115310541F42DB73EB74091040150918A
:100540000501241B350BE091D801F091D901E21788
:10055000F307A0F42E1B3F0B2817390778F0AC01E6
:100560004E5F5F4F2417350748F04E0F5F1F5093C3
:10057000D9014093D8018193919302C0E0E0F0E06B
:10058000CF01DF91CF911F910F910895CF93DF930A
:10059000009709F481C0FC01329713821282A09166
:1005A000DA01B091DB01109781F420813181820F53
:1005B000931F2091D8013091D9012817390751F59F
:1005C000F093D901E093D80167C0ED0120E030E05D
:1005D000CE17DF0740F44A815B819E01411551052A
:1005E000F1F0EA01F5CFD383C28340815181840FBA
:1005F000951FC817D90759F488819981840F951FD1
:100600000296918380838A819B81938382832115C3
:10061000310529F4F093DB01E093DA013DC0E901F3
:10062000FB83EA8349915991C40FD51FEC17FD074D
:1006300061F480819181840F951F0296E90199836D
:100640008883828193819B838A83E0E0F0E0129625
:100650008D919C911397009719F0FD01DC01F7CF64
:100660008D919C9111979D012E5F3F4F820F931F9B
:100670002091D8013091D9012817390769F43097B2
:1006800029F41092DB011092DA0102C01382128267
:10069000B093D901A093D801DF91CF910895AEE036
:1006A000B0E0E5E5F3E00C9410060D891E8986E0C4
:1006B0008C831A8309838FEF9FE79E838D83AE011E
:1006C000475E5F4F6F89788DCE0101960E9471035E
:1006D000EF81F885E00FF11F10822E96E4E00C9474
:1006E0002C06ABE0B0E0E7E7F3E00C9402066C0107
:1006F0007B018A01FC0117821682838181FFCCC1B4
:10070000CE0101963C01F6019381F70193FD85919D
:1007100093FF81917F01882309F4BAC1853239F4AE
:1007200093FD859193FF81917F01853229F4B60174
:1007300090E00E946805E7CF912C212C312CFFE13D
:10074000F315D8F08B3279F038F4803279F08332B7
:10075000A1F4232D20611DC08D3261F0803369F436
:10076000232D216016C0832D8260382EE32DE46096
:100770003E2E2AC0F32DF8601DC037FC2DC020EDA1
:10078000280F2A3040F08E32B9F436FC81C1232D77
:100790002064322E19C036FE06C08AE0989E200DD5
:1007A0001124922E11C0EAE02E9E200D1124222E3B
:1007B000F32DF0623F2E08C08C3621F4832D806823
:1007C000382E02C0883641F4F70193FD859193FFDE
:1007D00081917F018111B3CF982F9F7D95549330E4
:1007E00028F40C5F1F4F9FE399830DC0833631F0CF
:1007F000833771F0833509F059C021C0F801808139
:1008000089830E5F1F4F88248394912C530113C05A
:100810002801F2E04F0E511CF801A080B18036FE95
:1008200003C0692D70E002C06FEF7FEFC5010E9429
:100830005D054C018201F32DFF773F2E16C0280184
:1008400022E0420E511CF801A080B18036FE03C0A8
:10085000692D70E002C06FEF7FEFC5010E94520565
:100860004C01F32DF0683F2E820133FC1BC0822D1A
:1008700090E088169906B0F4B60180E290E00E94FC
:1008800068052A94F4CFF50137FC859137FE8191F4
:100890005F01B60190E00E94680521102A9421E0D2
:1008A000821A91088114910471F7E8C0843611F01E
:1008B000893641F5F80137FE07C060817181828178
:1008C00093810C5F1F4F08C060817181072E000C5F
:1008D000880B990B0E5F1F4FF32DFF763F2E97FF6E
:1008E00009C090958095709561957F4F8F4F9F4F70
:1008F000F0683F2E2AE030E0A3010E94A405882E74
:10090000861845C0853731F4232D2F7EB22E2AE07C
:1009100030E025C0932D997FB92E8F36C1F018F4A1
:10092000883579F0B5C0803719F0883721F0B0C02C
:10093000E92FE061BE2EB4FE0DC0FB2DF460BF2E8A
:1009400009C034FE0AC0292F2660B22E06C028E056
:1009500030E005C020E130E002C020E132E0F801E3
:10096000B7FE07C060817181828193810C5F1F4F48
:1009700006C06081718180E090E00E5F1F4FA3018F
:100980000E94A405882E8618FB2DFF773F2E36FE89
:100990000DC0232D2E7FA22E891458F434FE0BC0D7
:1009A00032FC09C0832D8E7EA82E05C0B82CA32C46
:1009B00003C0B82C01C0B92CA4FE0FC0FE01E80D85
:1009C000F11D8081803321F49A2D997EA92E09C0D2
:1009D000A2FE06C0B394B39404C08A2D867809F0B1
:1009E000B394A3FC11C0A0FE06C0B21488F4280C76
:1009F000922C9B180EC0B21460F4B60180E290E015
:100A00000E946805B394F7CFB21418F42B1802C0F3
:100A1000982C212CA4FE10C0B60180E390E00E9427
:100A20006805A2FE17C0A1FC03C088E790E002C0E1
:100A300088E590E0B6010CC08A2D867859F0A1FEB9
:100A400002C08BE201C080E2A7FC8DE2B60190E01B
:100A50000E946805891438F4B60180E390E00E9492
:100A600068059A94F7CF8A94F301E80DF11D80810F
:100A7000B60190E00E9468058110F5CF222009F4AC
:100A800042CEB60180E290E00E9468052A94F6CF3B
:100A9000F6018681978102C08FEF9FEF2B96E2E1EE
:100AA0000C941E06FC010590615070400110D8F7AF
:100AB000809590958E0F9F1F0895FC0161507040A6
:100AC00001900110D8F7809590958E0F9F1F089583
:100AD0000F931F93CF93DF93FB01238121FD03C06D
:100AE0008FEF9FEF2CC022FF16C0468157812481D3
:100AF00035814217530744F4A081B1819D012F5FD6
:100B00003F4F318320838C93268137812F5F3F4F66
:100B10003783268314C08B01EC01FB010084F1852F
:100B2000E02D0995892BE1F6D80116968D919C91BF
:100B30001797019617969C938E931697CE01DF9187
:100B4000CF911F910F910895FA01AA27283051F1F2
:100B5000203181F1E8946F936E7F6E5F7F4F8F4FEE
:100B60009F4FAF4FB1E03ED0B4E03CD0670F781F4D
:100B7000891F9A1FA11D680F791F8A1F911DA11D32
:100B80006A0F711D811D911DA11D20D009F468946B
:100B90003F912AE0269F11243019305D3193DEF613
:100BA000CF010895462F4770405D4193B3E00FD0C9
:100BB000C9F7F6CF462F4F70405D4A3318F0495DB4
:100BC00031FD4052419302D0A9F7EACFB4E0A69597
:100BD0009795879577956795BA95C9F700976105B9
:100BE000710508959B01AC010A2E0694579547950F
:100BF00037952795BA95C9F7620F731F841F951F04
:100C0000A01D08952F923F924F925F926F927F9214
:100C10008F929F92AF92BF92CF92DF92EF92FF920C
:100C20000F931F93CF93DF93CDB7DEB7CA1BDB0BB8
:100C30000FB6F894DEBF0FBECDBF09942A8839885D
:100C400048885F846E847D848C849B84AA84B98464
:100C5000C884DF80EE80FD800C811B81AA81B98170
:100C6000CE0FD11D0FB6F894DEBF0FBECDBFED0184
:060C70000895F894FFCF87
:100C76000000DC01200000E108000157656C636F8D
:100C86006D6520746F2074686520666972737420C0
:100C9600746573742E20506C656173652073656E80
:100CA6006420612073696E676C6520636861726198
:100CB600637465722066726F6D20796F7572207429
:100CC60065726D696E616C2E0D0A0049207265634E
:100CD600656976656420616E200057656C636F6D8B
:100CE6006520746F20746865205365636F6E642099
:100CF600746573742E20506C656173652073656E20
:100D06006420612070726F7065726C7920746572F0
:100D16006D696E6174656420737472696E672E0DF9
:100D26000A0D0A00256400492072656365697665C7
:100D3600642074686973206C696E653A0020204CE3
:080D46006172676F3A200000A2
:00000001FF
