S01200004C6162352D55534152542E7372656312
S11300000C9434000C943E000C943E000C943E007E
S11300100C943E000C943E000C943E000C943E0064
S11300200C943E000C943E000C943E000C943E0054
S11300300C943E000C943E000C943E000C943E0044
S11300400C943E000C943E000C943E000C943E0034
S11300500C943E000C943E000C943E000C943E0024
S11300600C943E000C943E0011241FBECFEFD8E048
S1130070DEBFCDBF0E945B000C9415010C94000000
S11300809093C5008093C40088E18093C10086E00A
S11300908093C2000895E0ECF0E080818823ECF7BF
S11300A08091C6000895E0ECF0E0908195FFFDCFCB
S11300B08093C600089580E190E00E9440002FE301
S11300C08DE093E0215080409040E1F700C00000B3
S11300D083E40E9453008FE60E9453008EE60E9440
S11300E0530087E60E94530082E70E94530081E692
S11300F00E94530084E70E94530085E70E94530046
S11301008CE60E94530081E60E94530084E70E941B
S1130110530089E60E9453008FE60E9453008EE646
S11301200E94530083E70E94530081E20E9453001F
S113013080E20E94530089E50E9453008FE60E94EA
S1130140530085E70E94530080E20E94530087E633
S11301500E9453008FE60E94530084E70E945300DC
S113016080E20E94530084E70E94530088E60E94C4
S1130170530085E60E94530080E20E94530083E707
S11301800E94530085E60E94530082E70E945300B8
S113019089E60E94530081E60E9453008CE60E9487
S11301A0530080E20E94530089E60E9453008EE6C9
S11301B00E94530084E70E94530085E60E94530086
S11301C082E70E94530086E60E94530081E60E9463
S11301D0530083E60E94530085E60E94530080E2A8
S11301E00E94530084E70E9453008FE60E9453004C
S11301F080E20E94530087E70E9453008FE60E942A
S1130200530082E70E9453008BE60E94530081E270
S11302100E9453008DE00E9453008AE00E94530024
S11102200E944B000E945300FBCFF894FFCFC6
S9030000FC
